:020000040800F2
:100000003007002065010008933F0008F136000822
:10001000913F0008130E0008614A0008000000002C
:10002000000000000000000000000000694200081D
:10003000E712000800000000B53F00086B4200080E
:100040007F0100087F0100087F0100087F01000890
:100050007F0100087F010008E91200087F01000805
:100060007F0100087F0100087F0100087F01000870
:100070007F0100087F0100087F010008150E0008BD
:100080007F0100087F0100087F0100087F01000850
:100090007F0100087F0100087F0100087F01000840
:1000A0007F0100087F0100087F0100087F01000830
:1000B0007F0100087F0100087F0100087F01000820
:1000C0007F0100087F0100087F0100087F01000810
:1000D0007F010008554A00087F0100087F010008E1
:1000E000F91200087F0100087F01000800000000ED
:1000F0000000000000000000000000000000000000
:1001000000000000000000007F0100087F010008DF
:100110007F0100087F0100087F0100087F010008BF
:100120007F0100087F0100087F0100087F010008AF
:100130007F0100087F0100087F0100087F0100089F
:100140007F0100087F0100087F0100087F0100088F
:10015000DFF80CD000F070FC004800472D54000878
:10016000300700200648804706480047FEE7FEE7C4
:10017000FEE7FEE7FEE7FEE7FEE7FEE7FEE7FEE757
:100180000D43000851010008202A04DB203A21FA1F
:1001900002F00021704721FA02F3D040C2F12002A0
:1001A000914008431946704710B5431A934209D24B
:1001B0008318881803E010F8011D03F8011D521E72
:1001C000F9D210BD40EA01039B0703D009E008C93A
:1001D000121F08C0042AFAD203E011F8013B00F80C
:1001E000013B521EF9D210BD421C10F8011B002920
:1001F000FBD1801A7047034611F8012B00F8012B40
:10020000002AF9D1184670470FB400B58DB010A977
:1002100009900B9000914FF0FF300A9000200C9055
:1002200005480690054807906A4609A80F9900F00E
:10023000CDFA0DB05DF814FBE907000807080008C7
:100240002DE9FF5F1D464FF0FF3BD5E90146914682
:100250005F464FF00008A9697F1C01988847296A0A
:10026000824688470028F6D1BAF1FF3F0CD024F42B
:10027000C064002E19DD600614D5BAF12B0F09D029
:10028000BAF12D0F0ED103E0584604B0BDE8F09F3F
:1002900044F48064A9697F1C01988847761E8246D1
:1002A000002E02DDBAF1300F03D0B9F1000F26D0D5
:1002B00032E0A969761E44F400747F1C01988847D7
:1002C0008246002E05DDBAF1780F06D0BAF1580F3C
:1002D00003D0B9F1000F10D01EE0B9F1000F02D029
:1002E000B9F1100F18D1A969761E24F400747F1C8F
:1002F000019888478246102002E0082000E00A208A
:10030000814609E008FB0908A969761E44F40074D7
:100310007F1C019888478246002E05DD49465046DD
:1003200000F040FA0028EDDAE96901988847A00555
:1003300002D46FF00100A8E7E00725D1600613D5CD
:10034000600502D5C8F1000000E0404629680A1D9A
:100350002A600968220501D5087015E0220701D539
:10036000088011E008600FE02868011D296000681E
:10037000210502D580F8008006E0210702D5A0F80B
:10038000008001E0C0F8008038467EE780EA010284
:1003900010B502F00043400022D04A001FD0010EE9
:1003A00001EB1261C0F35600C2F3560240F40000A4
:1003B00042F40002A0FB022000047F39140400D0A4
:1003C000401C50EA124001D44000491EC2B20C0643
:1003D00004EBD010401C4008802A02D003E000202B
:1003E00010BD20F00100002900DA0020184310BDE4
:1003F0002DE9FE4F804681EA0300C00F0C460090B5
:1004000021F0004123F00045B8EB0200A94105D2DC
:100410004046214690461C460B46024623F00040CB
:10042000104347D0270DC7F30A00C3F30A510290C7
:10043000401A019040286BDAC3F3130040F4801B8C
:100440000098924620B10023D2EB030A63EB0B0B1A
:1004500001985946C0F14002504600F082F9064624
:100460000D4650465946019A00F08AF910EB0800F3
:100470006141002487EA115284EAE7731A4340D0AD
:10048000009A62B3019A012A4FEA075215DC001B59
:1004900061EB02014FF0004202EA0752CDE900424F
:1004A000001C41F5801132462B4600F003FA03B0E0
:1004B000BDE8F08F40462146F9E7001B61EB0201E1
:1004C000001C41F5801300185B412018A2F50017AD
:1004D00047EB030140EAD570B6196D4111E06D0894
:1004E0004FEA360645EAC0754FEA0752001B61EB3A
:1004F0000201001C41F5801149084FEA3000001943
:10050000514132462B4603B0BDE8F04F00F0C3B96D
:100510000098012240000023D0EB020263EBE0735D
:10052000009821464FEAE074B8EB000061EB04014B
:10053000E9E783F000435BE781F0004158E72DE9EC
:10054000FE4F81EA030404F0004421F000410094CE
:100550004FF0000B23F0004350EA01045ED052EA52
:1005600003045BD0C3F30A54C1F30A552C44A4F22C
:10057000F3340194A0FB0254C1F3130141F4801140
:10058000C3F3130343F4801301FB024400FB034E47
:10059000840A970A44EA815447EA8357A4FB076810
:1005A00002958D0A05FB07854FEA932C04FB0C543A
:1005B0002705029D4FEA065847EA1637B5EB0805AE
:1005C0006EEB070C870E920E47EA811742EA831200
:1005D000A7FB0201B6EB0B0164EB00042B0D43EA11
:1005E0000C335E1844EB1C50DA465146E7FB02011F
:1005F000C5F313044FEA0B3343EA14534FEA0432B2
:10060000019C43EA0603A4F10C040294009CCDE98A
:1006100000B400F04FF903B0BDE8F08F00200146B0
:10062000F9E770B521F0004303430CD0C1F30A553C
:100630000024D5EB040564EB0403D617AD1AB341CF
:1006400002DB0020014670BD201841EB025170BD55
:100650000EB5C10F80EAE0700844CA07002140F2DD
:1006600033438DE80E000A460B4600F023F903B031
:1006700000BD20F00040C10DC0F3160040F40000A2
:100680007F2901DA00207047962903DCC1F1960129
:10069000C840704796398840704770B5C1F30A5218
:1006A00001F000450024C1F3130140F2FF3341F48F
:1006B00080119A4201DA002070BD40F233439A4221
:1006C000A2F2334203DC5242FFF75EFD00E09040AD
:1006D0002C43F1D0404270BD00F0004230F00040A9
:1006E0000AD0C10D01F56071C0F3160042EA015154
:1006F000C20840071143704700200146704701F0CF
:10070000004330B421F0004150EA010206D00A0D46
:10071000A2F56072C1F31301002A02DC30BC002094
:100720007047440F44EAC104C100E01830BC00EB3C
:10073000C25000F079B830B50B46014600202022A7
:10074000012409E021FA02F59D4205D303FA02F5DE
:10075000491B04FA02F52844151EA2F10102F1DC3E
:1007600030BD202A04DB203A00FA02F10020704755
:100770009140C2F1200320FA03F3194390407047DF
:10078000202A06DBCB17203A41FA02F043EAE07355
:1007900006E041FA02F3D040C2F120029140084342
:1007A000194670473A2800D2303820F02002412AFA
:1007B00001D3A2F13700884201D34FF0FF307047D8
:1007C000026811441378016018467047D1600449EB
:1007D00051610449116200211161114600F044B9D0
:1007E000C10700085D0A0008426842B1016811F8BB
:1007F000013B23B1521EC0E9001218467047012187
:10080000C160881E704742685AB1C368016843B925
:1008100083688B4205D0491E521CC0E9001200209B
:1008200070474FF0FF3070470029A8BF7047401C49
:10083000490008BF20F00100704710B4B0FA80FCF6
:1008400000FA0CF050EA010404BF10BC704749B133
:10085000CCF1200421FA04F411FA0CF118BF0121A3
:1008600021430843A3EB0C01CB1D4FEA00614FEA83
:10087000102042BF002010BC704700EBC350104452
:100880000029A4BF10BC7047401C490008BF20F0DD
:10089000010010BC704710B5141E73F1000408DA93
:1008A000401C41F1000192185B411A4301D120F034
:1008B000010010BD2DE9F04D92469B4611B1B1FAF1
:1008C00081F202E0B0FA80F220329046FFF749FF51
:1008D00004460F4640EA0A0041EA0B0153465A46D5
:1008E000084313D0114653EA010019D0C8F1400261
:1008F0005046FFF749FC05460E46504659464246CB
:10090000FFF72FFF084305D0012004E020463946B9
:10091000BDE8F08D0020054346EAE0762C433743DE
:100920000A986305E40AA0EB08000022FD0A44EAE5
:1009300047540A3002D500200146E9E701051019A5
:100940006941DDE9084500196941BDE8F04DA2E7BC
:100950002DE9F041054621F000400C46284309D01E
:10096000C4F30A5040F23341884205DD284621464F
:10097000BDE8F0812846FBE740F2FE31884210DCFA
:100980000CDB4FEA043040EA155050EA053105D03F
:10099000104804F0004101430020E9E7002001462F
:1009A000E6E7A0F233404642C6F14002284621461F
:1009B000FFF7D7FE07468846284621463246FFF70E
:1009C000E3FB43463A46FFF766FF3246BDE8F04197
:1009D000FFF7C7BE0000F03F30B5041E71F1000400
:1009E00004DB4FF00044404264EB0101141E73F13C
:1009F000000405DB1C464FF00043524263EB040346
:100A00008B4208BF824230BD30B5041E71F1000434
:100A100004DB4FF00044404264EB0101141E73F10B
:100A2000000405DB1C464FF00043524263EB040315
:100A3000994208BF904230BD064C074D06E0E06881
:100A400040F0010394E8070098471034AC42F6D315
:100A5000FFF782FB7078000890780008C0B24FF46E
:100A6000F05100F097B900002DE9F34F8BB04FF033
:100A7000000801F10C000C464FF0010B46460DF149
:100A8000080A01906269012101989047051E2DD046
:100A9000252D2CD0216A8847C0B1626901210198B7
:100AA0009047216A88470028F7D1411E6269019862
:100AB000904700E0761CA1690B988847216A884717
:100AC0000028F7D1E1690B988847DBE7A1690B980B
:100AD00088470746A84201D1761CD3E7E1690B9805
:100AE00088477F1C02D1B8F1000F6FD046E1002784
:100AF00062693D463946019890472A2804D16269C7
:100B00000121019890470125DFF884926269012153
:100B100001989047A0F130010A290AD24F45E5DC3F
:100B200007EB870100EB4107303FDFD445F01005AC
:100B3000ECE7E90601D46FF000476C280AD04C2896
:100B400014D0682815D06A280DD074281CD07A28B3
:100B50001AD01DE062690121019890476C2802D0EB
:100B600045F0040514E045F002050DE045F02005D0
:100B70000AE06269012101989047682802D045F097
:100B8000080505E045F40065626901210198904778
:100B9000C4E9015765283DD019DC58287AD00CDC0F
:100BA000452837D004DC252826D0412831D131E032
:100BB00046282FD047282CD12CE05B2877D06128FD
:100BC00028D063287CD0642823D15AE0D0E06F2855
:100BD00048D008DC66281DD067281BD0692821D0A2
:100BE0006E2816D127E0702845D0732868D0752864
:100BF00047D078280DD14DE0A1690B98884705466C
:100C000025283FF469AFE1690B9888476D1C3FF4D4
:100C10006AAFB3E023466A466FF001000B99AFF369
:100C200000809EE045F040006060A80723464FF03A
:100C3000000236D43EE0E8077FF447AF2068011D8C
:100C400021600068290501D506701BE7290701D539
:100C5000068017E7A90703D5F117C0E9006111E77E
:100C600006600FE745F040006060A80723464FF09C
:100C7000080216D41EE040F60E0125EA010060606D
:100C800016E045F040006060A80723464FF00A02D6
:100C900007D40FE045F040006060A80708D5234660
:100CA00010226FF001000B99AFF3008059E007E0CC
:100CB000234610226FF001000B99FFF7C1FA50E0B4
:100CC0004FF000094F464B46632802D05B2806D000
:100CD00040E0E80601D40120A06001273AE0626903
:100CE0000121019890475E2805D14FF00109626902
:100CF000494601989047216939B900210A4653466F
:100D000043F82120491C0829FADBB0B3216969B9ED
:100D1000C11700EBD16253110AEB830122F01F02CD
:100D2000821A01200B68904003430B606269012125
:100D3000019890475D28E8D1B9F1000F09D0002053
:100D4000514651F82020D24341F82020401C082869
:100D5000F7DB02AB224600976FF001000B99AFF36F
:100D6000008000280CDA401C08D1BBF1000F05D030
:100D70004FF0FF300DB0BDE8F08FFFE74046F9E7D8
:100D8000E90701D108F1010806444FF0000B79E6AC
:100D9000CCCCCC0C7F2801D9002208E0064A02EB1B
:100DA0005002C007127800D1120902F00F02012090
:100DB00090400840704700003078000870B58C18EB
:100DC00010F8015B15F0070301D110F8013B2A115F
:100DD00006D110F8012B03E010F8016B01F8016B4C
:100DE0005B1EF9D12B0705D40023521E0DD401F848
:100DF000013BFAE710F8013BCB1A921C03E013F811
:100E0000015B01F8015B521EF9D5A142D8D3002045
:100E100070BDFEE72DE9FC41F34800F081FAF34C88
:100E200020784F283CD043283ED04D2836D0F04F74
:100E300056283DD04E2866D0A046EE4E0A24EE4DF0
:100E40004B287DD041287CD000254646542879D0B7
:100E5000572878D05A2877D044281FD1E348FFF785
:100E6000C3F90246711CE148FFF79EF9009501ABFA
:100E70006A46E2A1DD480195FFF7C6F9E14C00980A
:100E80000022A070019860702146DF4801F08AFEC0
:100E90006378A278DDA1E24803F0E4FDBDE8FC81BF
:100EA000BDE8FC4104F0E0BCBDE8FC4104F058BAE8
:100EB0006178A078DB4C303830392368072800D1BE
:100EC0005B1ED94A02EB431343F820103968A9B9D5
:100ED0002168072800D1491E02EB411151F820007A
:100EE000D2A100EB80004200CD4803F0BBFD002002
:100EF00002F0B4FDCA49602002F04CFC2068BDE855
:100F0000FC4104F0EDBEB948FFF76EF90246611CE2
:100F1000B648FFF749F9B549C948FFF76CF9C84A1F
:100F2000C8A1BF4803F09EFD386870B1302002F0C0
:100F300015FC4FF6FF7002F091FDB94930207AE0C0
:100F400009E047E07BE0C5E008E1002002F006FC94
:100F5000B34900206FE0A548FFF746F9024608F1C3
:100F60000101A248FFF720F9A34AB8A19F48FFF763
:100F70004BF9386800B32868B0FBF4F104FB1102A8
:100F80008C216020303202F0F9FB28689B21B0FBF5
:100F9000F4F03030C2B2602002F0F0FB2A68ACA15D
:100FA0009F48613203F05EFD02B00122BDE8F041CE
:100FB0009B49A84802F070BB2B68A7A198483268EB
:100FC00003F050FD182002F0C9FB9549182002F0EB
:100FD000E1FBE3E78548FFF707F9024608F1010165
:100FE0008248FFF7E1F8834A98A18048FFF70CF99F
:100FF0003868A8B13068B0FBF4F104FB1102BE21DF
:101000004820303202F0BAFB306802B0B0FBF4F096
:10101000BDE8F0413030C2B2CD21482002F0AEBB75
:101020002B688DA17E48326803F01CFD182002F069
:1010300095FB7B491820BDE8FC4102F0ABBB6B4837
:10104000FFF7D2F80246711C6848FFF7ADF800952B
:1010500001AB6A4685A165480195FFF7D5F8854E35
:1010600000980022307001987070B5703146664863
:1010700001F0FAFD737832787FA1694803F0F2FC41
:10108000386820B33078B0FBF4F104FB1102BE21C4
:10109000A820303202F072FB3078CD21B0FBF4F0A2
:1010A0003030C2B2A82002F069FB7078B0FBF4F1D6
:1010B00004FB11025021A820303202F05FFB70784F
:1010C0005F21B0FBF4F03030C2B2A82089E003F019
:1010D00093FEE3E64548FFF787F80246711C434854
:1010E000FFF762F8009501AB6A4660A13F480195A1
:1010F000FFF78AF80098654EC2B265A13270019878
:10110000C3B27370B570464803F0ACFC3868002871
:10111000DDD03078B0FBF4F104FB1102BE21782061
:10112000303202F02BFB3078CD21B0FBF4F03030C0
:10113000C2B2782002F022FB7078B0FBF4F104FB1D
:10114000110250217820303202F018FB70785F21B4
:10115000B0FBF4F03030C2B2782042E02348FFF711
:1011600043F80246711C2148FFF71EF8009501ABB9
:101170006A463EA11D480195FFF746F800984A4E81
:10118000C2B24AA132700198C3B27370B5702448DC
:1011900003F068FC3868002899D03078B0FBF4F18F
:1011A00004FB1102B4219020303202F0E7FA3078CB
:1011B000C321B0FBF4F03030C2B2902002F0DEFA6E
:1011C0007078B0FBF4F104FB110241219020303221
:1011D00002F0D4FA70785021B0FBF4F03030C2B293
:1011E000902002F0CBFA72E7C80200200003002032
:1011F000140000201C0000201800002025642F256A
:10120000640000002800002048010020446174654B
:101210002D3E205B253032642F253032645D000086
:1012200015030020240000204400002057415445AD
:1012300052204452414E4B3A20256425252000007F
:10124000240100204E414D453A25730025640000DD
:1012500025630000480200204147453A25303264AA
:10126000204B473A253032640000000025643A25BF
:10127000640000000A00002054696D652D3E205B6B
:10128000253032643A253032645D000004000020CD
:1012900057616B652054696D652D3E205B253032AA
:1012A000643A253032645D0007000020536C6565A8
:1012B000702054696D652D3E205B253032643A25DF
:1012C0003032645D0000000010B50468636043685C
:1012D000102B036803D099600068C26010BD9A604B
:1012E0000068C16010BD704710B5012000F0D4FA4D
:1012F000BDE8104004F0B8BA10B54FF4005000F04B
:10130000CBFA0548006818B1BDE8104004F028B8D1
:10131000BDE8104004F0A8BA10000020704700009B
:101320002DE9F05F0446F94AF84DF84EF74F006892
:10133000DFF8D893DFF8D4A3DFF8D0B3D114783D29
:10134000643E503F4FF4000E4FF4004C4FF4002821
:10135000A9F13C09AAF1280AABF1140B904221D95A
:10136000EB4A1368A8420FD0B0420FD0B84213D056
:10137000484513D0504513D0584501D1724624E05A
:10138000E34A083290423CD108221EE080221CE051
:10139000DF4A3032904239D10A4616E0624614E004
:1013A000424612E0D94A803A1368A842ECD0B042D3
:1013B000ECD0B842F0D04845F0D05045F0D0584578
:1013C000DCD0D24A9042DBD10205134279D00268C8
:1013D000D243120775D4026822F008020260CB4A99
:1013E0002068904232D9A84219D0B0421DD0B842EC
:1013F00028D0484523D0504523D058450BD17146BD
:1014000020E0C34A1C329042C2D1BFE7C04A4432F6
:101410009042C5D1C2E7BE4A0832904201D10821AC
:1014200010E0BB4A1C32904201D180210AE0B84A48
:101430003032904206D0B6494431884201D16146EB
:1014400000E04146B248001D01602CE0A84214D0E3
:10145000B04218D0B84223D048451ED050451ED0C7
:10146000584501D171461BE0904202D14FF0006116
:1014700016E0A74A0832904201D1082110E0A44AA0
:101480001C32904201D180210AE0A14A30329042C0
:1014900006D09F494431884201D1614600E041466F
:1014A0009A4880384160606B40F00100606304201E
:1014B00084F82100002084F82000216B09B1204627
:1014C0008847924A206811154FF4800E4FF4804CE3
:1014D0004FF48028904221D98D4A1368A8420FD03A
:1014E000B0420FD0B84213D0484513D0504513D066
:1014F000584501D1724624E0854A083290423FD1D6
:1015000004221EE040221CE0814A303290423CD14D
:101510000A4616E0624614E0424612E07B4A803AF0
:101520001368A842ECD0B042ECD0B842F0D04845A5
:10153000F0D05045F0D05845DCD0744A9042DBD111
:10154000C204134275D00268D243520771D40268B4
:10155000920603D4026822F0040202606B4A2068FB
:10156000904232D9A84219D0B0421DD0B84228D0FA
:10157000484523D0504523D058450BD1714620E033
:10158000634A1C329042BFD1BCE7614A4432904268
:10159000C2D1BFE75E4A0832904201D1042110E077
:1015A0005B4A1C32904201D140210AE0584A303255
:1015B000904206D056494431884201D1614600E04C
:1015C00041465348001D01602CE0A84214D0B042AF
:1015D00018D0B84223D048451ED050451ED058459B
:1015E00001D171461BE0904202D14FF0806116E0BC
:1015F000474A0832904201D1042110E0444A1C328B
:10160000904201D140210AE0414A3032904206D056
:101610003F494431884201D1614600E041463B48A0
:1016200080384160112084F82100E16A09B1204628
:101630008847364A206851154FF4005C4FF4003E4D
:10164000904228D9324B1B68A84212D0B04213D026
:10165000B8421AD048451AD050451AD0584502D140
:101660004FF400182AE0DFF8A88008F10808404588
:1016700044D14FF0020821E04FF020081EE0DFF8CF
:10168000908008F13008404544D1884616E0E04695
:1016900014E0F04612E01D4B803B1B68A842E8D0E6
:1016A000B042E9D0B842F0D04845F0D05045F0D033
:1016B0005845D5D09042D6D14FF0007813EA080FA4
:1016C00070D00368DB439B077FD403689B0603D479
:1016D000036823F0020303602068904239D9A842CE
:1016E00021D0B04225D0B8422FD048452AD050450D
:1016F0002AD0584513D14FF4001126E0DFF81080AE
:1017000008F11C084045BAD1B6E70000800002404D
:1017100000040240DFF8B8804045BAD1B7E72C4A50
:101720003C3A904201D102210FE0294A283A9042E6
:1017300001D1202109E0264A143A904205D02449DB
:10174000884201D1614600E071462148403801607D
:101750002CE0A84215D0B04219D0B84224D0484558
:101760001ED050451FD0584502D14FF400111BE048
:10177000904202D14FF0007116E0154A3C3A904277
:1017800001D1022110E0124A283A904201D12021D1
:101790000AE00F4A143A904206D00D49884202D11D
:1017A000614601E011E071460A484160606B606388
:1017B000012084F82100002084F82000A16A00297B
:1017C00003D02046BDE8F05F0847BDE8F09F000069
:1017D000440402400000024070B520B190F821108E
:1017E000002411B103E0012070BD80F820400221E7
:1017F00080F8211003681A6843F6F0718A43D0E933
:1018000001152943D0E90356354329434569294346
:1018100085692943C569294311431960446301213E
:1018200080F82110002070BD70B5044690F82000AB
:10183000012823D0012084F82000022084F8210010
:101840002068056825F0010505602046FFF73CFD8E
:101850002068016841F0020101602068016841F0E0
:10186000040101602068016841F0080101602068FE
:10187000016841F001010160002070BD022070BDCF
:1018800031B500F0FDF8044600F0FAF80099001BAD
:101890008842F9D338BD7047044910B50A6802423E
:1018A00002D00860FFF7F7FF10BD000014040140EC
:1018B0002DE9F84FDFF890A100220AF1040B14463D
:1018C00001274FF00F090BF1040E00BF0B6807FA58
:1018D00004F52B40AB4274D1DFF870C14E68A6EB23
:1018E0000C0866452BD00DDC032E34D005DC36B356
:1018F000012E19D0022E2FD11BE0112E16D0122E40
:101900002AD119E0B8F5881F19D006DCB8F5803F58
:1019100015D0B8F5801F1FD111E0B8F5001F0ED00B
:10192000B8F5041F18D10AE0CA6815E0CA68121D8C
:1019300012E0CA6808320FE0CA680C320CE08A680C
:101940002AB1012A4FF0080203D0456104E00422C5
:1019500002E0056100E00022FF2B01D8064601E00D
:1019600000F104064FEA840501D9A5F12005D6F857
:1019700000C009FA05F82CEA080C02FA05F54CEA51
:10198000050CC6F800C04D68ED0057D5304DAE6966
:1019900046F00106AE61AD6924F0030605F00105CD
:1019A00000952C4D06EB050CDCF80850A6074FEA15
:1019B000167809FA08F6B543274EB04202D1002640
:1019C00010E03BE0254EB04201D101260AE0244E52
:1019D000B04201D1022605E0224EB04201D10326D9
:1019E00000E0042606FA08F62E43CCF808604D689D
:1019F000DAF80060ED03554601D51E4300E09E4332
:101A00002E604D68DBF80060AD035D4601D51E43D6
:101A100000E09E432E604D68DEF80060ED027546E2
:101A200001D51E4300E09E432E604D68AD020E4D71
:101A30002E6801D51E4300E09E432E60641C102CCE
:101A4000FFF444AFBDE8F88F00040140000011101E
:101A5000001002400000014000080140000C01405D
:101A600000100140001401400C040140806808404F
:101A700000D0012070470AB1016170470904FBE7FB
:101A800001480068704700004401002002480168D6
:101A9000491C01607047000044010020074810B550
:101AA000016841F010010160032000F087F8002078
:101AB00000F006F800F016F8002010BD00200240EB
:101AC00010B5044600F058FB4FF47A71B0FBF1F00A
:101AD00001F088FA00222146501E00F04FF8002045
:101AE00010BD00001D4808B5816941F00101816108
:101AF000806900F001000090052000F05FF80022EE
:101B000011466FF00B0000F039F8002211466FF01B
:101B10000A0000F033F8002211466FF0090000F0CF
:101B20002DF800221146501F00F028F8002211461F
:101B3000101F00F023F800221146901E00F01EF83E
:101B400000221146501E00F019F80548416821F0A6
:101B5000E06141F08061416008BD0000001002407A
:101B60000000014000F01F02012191404009800067
:101B700000F1E020C0F8001170470000F0B40E4BF7
:101B80001B680C46C3F30223C3F10705042D00D9DB
:101B90000425191D072901D2002300E0DB1E0126C0
:101BA00006FA05F1491E214099409E40761E1640D6
:101BB0003143F0BC02F0EEB90CED00E0064900F054
:101BC000070208684FF6FF03184040EA0220034A64
:101BD00010430860704700000CED00E00000FA05BB
:101BE0000120010291FAA1F1024AB1FA81F142F811
:101BF0002100704700000E4290FAA0F0044AB0FAAB
:101C000080F002EB80000121C0F8801070470000D6
:101C100000000E42F0B56BA38BB001460DCB8DE8F2
:101C20000D006BA403AD1DCC85E81D00F023002042
:101C30006B4A1D026B4C04296DD012DC012970D057
:101C4000022966D100F0B6FA61684FF4804292FA38
:101C5000A2F201F44041B2FA82F2D140491C49009B
:101C600055E0082979D0102953D167682168C90146
:101C70004FD54FF4701595FAA5F107F47010B1FA2D
:101C800081F1C8406E461DF80010F80337D5E06AB0
:101C90000F2797FAA7F700F00F00B7FA87F7F84079
:101CA00003AF3F5CE06AC0031AD5E06A93FAA3F37E
:101CB00000F0F000B3FA83F3D840E36A4FF4706C9D
:101CC0009CFAACFC03F47063BCFA8CFC23FA0CF3B2
:101CD000401CB2FBF0F09B1C5843B0FBF7F001E056
:101CE000B2FBF7F095FAA5F348434FF45012B3FA5C
:101CF00083F3DA40B25C8A4204D1400802E008462D
:101D0000394948436168490203D440000321B0FBCC
:101D1000F1F00BB0F0BDE16A890303D400F062FA80
:101D2000F7E737E02168C900F3D5E06A00F0F00179
:101D300093FAA3F0B0FA80F0C140E06A95FAA5F3F7
:101D400000F47040B3FA83F3D840491CB2FBF1F1C0
:101D5000801C41434800DCE7FFE7E16A4903DDD529
:101D60002168C900D5D5E06A93FAA3F100F0F0002C
:101D7000B1FA81F1C840E16A95FAA5F301F4704126
:101D8000B3FA83F3D940401CB2FBF0F0891C4843FE
:101D90004000BEE7226AC2F30121012903D1920764
:101DA00001D5C803B5E7022905D1626A920702D5B9
:101DB00049F64040ADE70329ABD121688903A8D596
:101DC0000A48A6E700000405060708090000000D00
:101DD0000102030405060708090A0B0C0D0E0F107B
:101DE00040787D010010024000093D00F0FA020039
:101DF0002DE9F84F04460078DFF8E8917A4DC007E6
:101E00004FF0010871D0E86940F08050E861E8695E
:101E1000764E00F080500090306840F48070306062
:101E2000FFF72EFE074604E0FFF72AFEC01B6428DA
:101E30007ED83068C005F7D5286A10F440704ED0BF
:101E4000A18801F44071814249D0286A4FF4803260
:101E500092FAA2F1B1FA81F109EB810320F440700A
:101E60004646C3F8008492FAA2F2B2FA82F209EB73
:101E700082010023C1F800342862C0072FD0FFF789
:101E8000FFFD074641F2883B4FF0020A05E000BF24
:101E9000FFF7F6FDC11B594577D89AFAAAF1B1FAB6
:101EA00081F141F040015046B6EB511F01D1296844
:101EB0000BE090FAA0F1B1FA81F141F04001B0EBF2
:101EC000511F01D1296A00E0696A9AFAAAF0B0FAB2
:101ED00080F000F01F0206FA02F00142D8D0286A12
:101EE000616820F44070084328622078800705D597
:101EF0006868A16820F44040084368602078400783
:101F000005D5E86AE16820F400300843E8622078EB
:101F1000000705D5E86A216920F480200843E862BB
:101F2000E86A800302D4E86A40034FD5286800E0DD
:101F30002BE0C00042D42868400105D5E86AA169B9
:101F400000F0F00088423FD1E86AA16920F0F0007B
:101F50000843E862E86A616920F470400843E86277
:101F60004FF0805090FAA0F0B0FA80F0464649F861
:101F70002080FFF785FD07464FF0005808E000BFBE
:101F8000FFF77EFDC01B642802D90320BDE8F88F4F
:101F900098FAA8F0B0FA80F040F02000400901D093
:101FA000286800E0686A98FAA8F1B1FA81F101F0B6
:101FB0001F0106FA01F10842E2D007E0E86A616910
:101FC00000F47040884201D00120DFE72078C0068D
:101FD00005D56868E16920F4800008436860002046
:101FE000D4E70000000042420010024000700040B0
:101FF0002DE9F047DFF8708105460E46D8F800005D
:1020000000F00700B0420CD2D8F8001021F0070110
:102010003143C8F80010D8F8000000F00700B042C3
:1020200077D12878514C800705D56068A96820F0E1
:10203000F000084360602878C00759D06968012023
:1020400001290DD0022929D05FF0020393FAA3F2EF
:10205000B2FA82F242F02002520904D0226803E070
:102060004FF40033F2E7626A93FAA3F3B3FA83F30F
:1020700003F01F03984002424BD0606820F0030039
:1020800008436060FFF7FCFC6968074641F288304E
:1020900001290DD00229814617D025E04FF00073A9
:1020A000D4E700BFFFF7ECFCC11B494501D918E09C
:1020B00081466068C0F381000128F3D118E000BFB9
:1020C000FFF7DEFCC11B49450BD86068C0F38100F7
:1020D0000228F5D10CE000BFFFF7D2FCC11B494537
:1020E00002D90320BDE8F087606810F00C0FF3D12F
:1020F000D8F80010404601F00701B1420BD9016841
:1021000021F0070131430160006800F00700B04290
:1021100001D00120E6E72878400705D56068E96826
:1021200020F4E060084360602878000706D5606806
:10213000296920F4605040EAC100606000F052F864
:102140006168F02292FAA2F201F0F001B2FA82F292
:10215000D140074A515CC840064908600020FFF79B
:10216000AFFC0020BEE7000000200240001002404B
:10217000187800083C010020014800687047000002
:102180003C01002008480949006849684FF4E062B2
:1021900092FAA2F201F4E061B2FA82F2D140044A6A
:1021A000515CC840704700003C0100200010024014
:1021B0002878000808480949006849684FF46052C7
:1021C00092FAA2F201F46051B2FA82F2D140044ACA
:1021D000515CC840704700003C01002000100240E4
:1021E00028780008F0B52DA28AB007CA8DE807004C
:1021F0002DA103AC0FC984E80F002F494B682F486D
:1022000003F00C02042A02D0082A02D02C480AB09B
:10221000F0BD4FF4701595FAA5F403F47012B4FAFA
:1022200084F4E2406E461DF80220DB0333D5CB6A0E
:102230000F2494FAA4F403F00F03B4FA84F4E340F7
:1022400003ACE45CCB6ADB0316D5CB6AF02797FAC4
:10225000A7F703F0F003B7FA87F7C96AFB40AF129C
:1022600097FAA7F701F47061B7FA87F7F9405B1C9A
:10227000B0FBF3F0891C4843B0FBF4F095FAA5F3EA
:1022800050434FF45011B3FA83F3D940715C91423B
:10229000BDD14008BBE70B485043B8E70000040538
:1022A000060708090000000D0102030405060708DF
:1022B000090A0B0C0D0E0F100010024040787D0132
:1022C00000127A0000093D002DE9F84F044600781D
:1022D000F74DC0074FF0010625D068687704C0F3BA
:1022E0008100012807D06868C0F3810002281BD153
:1022F0006868C00318D597FAA7F0B0FA80F040F0EC
:102300002000400901D0286800E0686A97FAA7F128
:10231000B1FA81F101F01F0106FA01F108425ED025
:10232000A06800287BD05AE0A068B0F5803F0BD0B1
:1023300010B1B0F5A02F11D0286820F480302860AB
:10234000286820F4802002E0286840F4803028606B
:10235000A06828B3FFF794FB80460BE0286840F4A0
:1023600080202860F0E700BFFFF78AFBA0EB0800A1
:10237000642870D897FAA7F0B0FA80F040F02000F7
:10238000400901D0286800E0686A97FAA7F1B1FA1D
:1023900081F101F01F0106FA01F10842E4D01EE0CC
:1023A000FFF76EFB804605E0FFF76AFBA0EB080035
:1023B0006428DED897FAA7F0B0FA80F040F0200049
:1023C000400901D0286800E0686A97FAA7F1B1FADD
:1023D00081F101F01F0106FA01F10842E4D12078F1
:1023E000B44F80074FF002084FF000095AD56868D3
:1023F0004FF0F80B10F00C0F07D06868C0F38100A5
:1024000002281CD16868C00319D498FAA8F0B0FA61
:1024100080F040F02000400902D0286801E08BE005
:10242000686A98FAA8F1B1FA81F101F01F0106FA81
:1024300001F108422BD0606901287DD127E0606955
:1024400088B396FAA6F0B0FA80F047F82060FFF75C
:1024500017FB824606E018E2FFF712FBA0EB0A002A
:10246000022886D898FAA8F0B0FA80F040F0200050
:10247000400901D0286800E0686A98FAA8F1B1FA2A
:1024800081F101F01F0106FA01F10842E4D0286849
:102490009BFAABF2A169B2FA82F220F0F800914007
:1024A0000843286025E0FFE796FAA6F1B1FA81F12A
:1024B00047F82190FFF7E4FA824605E0FFF7E0FADB
:1024C000A0EB0A000228CCD898FAA8F0B0FA80F065
:1024D00040F02000400901D0286800E0686A98FABE
:1024E000A8F1B1FA81F101F01F0106FA01F10842E9
:1024F000E4D1207800076FD5E069C0B396FAA6F062
:10250000B0FA80F007EB8000C0F88064FFF7B8FAFB
:10251000824605E0FFF7B4FAA0EB0A000228A0D833
:1025200098FAA8F1B1FA81F141F060014046B6EBAA
:10253000511F02D129680CE072E190FAA0F1B1FAC2
:1025400081F141F06001B0EB511F01D1296A00E037
:10255000696A98FAA8F0B0FA80F000F01F0206FA53
:1025600002F00142D6D00120FFF78AF934E0FFE7FC
:1025700096FAA6F1B1FA81F107EB8101C1F88094D6
:10258000FFF77EFA824605E0FFF77AFAA0EB0A0031
:10259000022898D898FAA8F1B1FA81F141F06001C7
:1025A0004046B6EB511F01D129680BE090FAA0F12B
:1025B000B1FA81F141F06001B0EB511F01D1296AFC
:1025C00000E0696A98FAA8F0B0FA80F000F01F0203
:1025D00006FA02F00142D7D12078400766D5E869B3
:1025E00040F08050E861E869DFF8CCB000F080503E
:1025F0000090DBF8001041F48071CBF80010FFF779
:102600003FFA824606E000BFFFF73AFAA0EB0A0065
:10261000642884D8DBF80000C005F5D520690128BE
:102620000AD008B1052813D0286A20F001002862DA
:10263000286A20F0040002E0286A40F001002862C5
:10264000206941F2883B90B3FFF71AFA82460BE00B
:10265000286A40F004002862EEE700BFFFF710FA96
:10266000A0EB0A01594594D898FAA8F1B1FA81F182
:1026700041F040014046B6EB511F01D129680BE003
:1026800090FAA0F1B1FA81F141F04001B0EB511F95
:1026900001D1296A00E0696A98FAA8F0B0FA80F0DE
:1026A00000F01F0206FA02F00142D7D032E005E046
:1026B000001002400000424200700040FFF7E0F9C5
:1026C000824605E0FFF7DCF9A0EB0A015945A0D8E6
:1026D00098FAA8F1B1FA81F141F040014046B6EB19
:1026E000511F01D129680BE090FAA0F1B1FA81F1F4
:1026F00041F04001B0EB511F01D1296A00E0696A45
:1027000098FAA8F0B0FA80F000F01F0206FA02F082
:102710000142D7D1E16AA1B36868C00307D56868F0
:10272000C0F38100022802D1E86AC00378D44FF0D8
:10273000806002290FD0E96A21F48031E96290FAC1
:10274000A0F0B0FA80F047F82090FFF799F98046A2
:102750004FF0006A6CE02968C90005D5E96A626B30
:1027600001F0F00191425BD1834690FAA0F0B0FAFB
:1027700080F047F82090FFF783F982464FF0006819
:1027800006E06AE0FFF77CF9A0EB0A0064287CD839
:1027900098FAA8F0B0FA80F040F02000400901D08B
:1027A000286800E0686A98FAA8F1B1FA81F101F0AE
:1027B0001F0106FA01F10842E4D1E86A616B20F0DA
:1027C000F0000843E862E86A216B20F47060084377
:1027D000E8629BFAABF0B0FA80F047F82060FFF7B0
:1027E0004FF9824606E000BFFFF74AF9A0EB0A0066
:1027F00064284AD898FAA8F0B0FA80F040F0200097
:10280000400901D0286800E0686A98FAA8F1B1FA96
:1028100081F101F01F0106FA01F10842E4D01CE049
:1028200099E000BFFFF72CF9A0EB080064282CD832
:102830009AFAAAF0B0FA80F040F02000400901D0E6
:10284000286800E0686A9AFAAAF1B1FA81F101F009
:102850001F0106FA01F10842E4D1206AA0B36968B9
:10286000C1F38101022976D04FF080714FF0007BD7
:1028700002280BD091FAA1F1B1FA81F147F8219029
:10288000FFF7FEF807465C466EE06AE091FAA1F0B9
:102890004A46B0FA80F08946BA4647F82020FFF74A
:1028A000EFF880465F4605E0FFF7EAF8A0EB080086
:1028B000022856D897FAA7F0B0FA80F040F020002E
:1028C000400902D0286801E063E0686A97FAA7F13E
:1028D000B1FA81F101F01F0106FA01F10842E3D1DA
:1028E000606AB0F5803F09D1E86A61680843E86230
:1028F000E86AE16820F00F000843E862D4E90901C2
:102900000843696821F474110843686099FAA9F0D2
:10291000B0FA80F04AF82060FFF7B2F8044604E00D
:10292000FFF7AEF8001B02281BD897FAA7F0B0FA01
:1029300080F040F02000400901D0286800E0686A7B
:1029400097FAA7F1B1FA81F101F01F0106FA01F13E
:102950000842E5D01DE01EE0FFF792F8C01B0228F8
:1029600002D90320BDE8F88F94FAA4F0B0FA80F001
:1029700040F02000400901D0286800E0686A94FA1D
:10298000A4F1B1FA81F101F01F0106FA01F1084248
:10299000E2D10020E6E70120E4E7F8B505004FF0BA
:1029A000000016460C46009006D02CB10022694665
:1029B000284600F019F808B10120F8BD287B2070E6
:1029C000E87BE070697B6170A97BA17056B101F072
:1029D000FBFAE070607801F0F7FA6070A07801F01F
:1029E000F3FAA0700020F8BD2DE9F04791460C469F
:1029F0005FEA00084AD084B3D8F800004068400776
:102A000044D4404601F07EFB4FF461620546B0FBC2
:102A1000F2F1B0FBF2F302FB13503C23B0FBF3F0F6
:102A2000B5FBF2F6607002FB1650B0FBF3F203FB4D
:102A30001200A070182931D31820B1FBF0F7B1FBB8
:102A4000F0F200FB12102070404601F054FB411CD4
:102A500004D0A84202D9461B02E017E04FF0FF362F
:102A6000A7EB071000EB4000C0EB001005EBC01512
:102A70002946404601F095FB40B9701C01D0711900
:102A800000E03146404601F078FB10B10120BDE87E
:102A9000F0873946404601F0A2FA00E02170B9F112
:102AA000000F0BD0207801F08FFA2070607801F0D1
:102AB0008BFA6070A07801F087FAA0700020E6E73A
:102AC00070B5040003D0607C002610B105E0012041
:102AD00070BD2674204600F043F802206074204642
:102AE00000F018F9042578BB204601F0CFFA58BB56
:102AF0002068416821F007014160A06820B11748B3
:102B0000016821F0010101601448001F0168A268FA
:102B100021F46071114301606068411C04D10120FF
:102B2000FFF778F880B1401E21688A6822F00F0212
:102B300042EA10428A602168CA6860F30F02CA60E4
:102B4000204601F0BDFA08B16574C0E7E6730120C4
:102B50006073A0736074002070BD0000306C004092
:102B600008B500680C49884215D1FFF739F80B48C1
:102B7000C16941F00061C161C069094A00F00060AB
:102B800000900120C10391FAA1F1B1FA81F102EBA9
:102B90008101C1F8000408BD002800400010024077
:102BA000000042422DE9F0410D4604003BD0C5B380
:102BB000207C01283AD04FF0010884F810800220D0
:102BC0006074E87872B301F0F6F9E073687801F0A8
:102BD000F2F96073A87801F0EEF9A073C2B2617BDC
:102BE000E07B01F09FFA20732870204601F08AFAFA
:102BF0004FF46161B0FBF1F1002518292DD918229D
:102C0000B1FBF2F1A1EB011101EB4101C1EB0111AB
:102C100000EBC1163146204601F0C3FA0427C8B9BB
:102C20000BE000E004E00120BDE8F0810220FBE7BA
:102C3000E07368786073A878CFE7204601F05BFA0C
:102C4000411C0AD0B04208D206490144204601F096
:102C500094FA10B167742574E5E784F8118025743F
:102C60000020E1E7805101002DE9F0410D4604000C
:102C700024D01DB3207C012823D04FF0010884F814
:102C80001080022060742878EAB101F094F94FF4C2
:102C9000616100FB01F6687801F08DF9C0EB00106E
:102CA00006EB8006A87801F086F9351829462046FB
:102CB00001F077FA0026042710BB0FE00120BDE8E1
:102CC000F0810220FBE74FF4616148436978C1EB72
:102CD000011100EB8100A9784518E7E720684168F9
:102CE00021F005014160204601F005FA411C0AD09F
:102CF000A84208D206490144204601F03EFA10B12C
:102D000067742674DAE784F8118026740020D6E709
:102D10008051010070B504000AD02068416821F09C
:102D200008014160FEF7ACFE05464FF47A7608E0F4
:102D3000012070BDFEF7A4FE401BB04201D9032064
:102D400070BD206840680007F4D5002070BD90F881
:102D50005100704710B5040003D094F8510010B131
:102D600004E0012010BD204600F038F8022084F86D
:102D700051002068016821F040010160D4E901019F
:102D80000843D4E903121143084361690843218BC6
:102D900001F400710843E1690843216A0843A16A0C
:102DA000084321680860A069042101EA1040616AB3
:102DB0000843216848602168E06A08612068C169A9
:102DC00021F40061C16104490020087060650120A0
:102DD00084F85100002010BD4001002030B5234D83
:102DE0000368002422480221032285B0AB421AD195
:102DF000836943F48053836180691E4D00F48050E1
:102E00000490A020CDE90001039269462846FEF710
:102E10004FFD4020CDE90004694628460294FEF7A4
:102E200047FD05B030BD144DAB42FAD1C36943F440
:102E30000043C361C069114D00F4004004904FF499
:102E4000A050CDE90001039269462846FEF730FD07
:102E5000E814CDE90004694628460294FEF728FDEF
:102E60000748416841F080514160DAE70030014095
:102E70000010024000080140003C004000100140EA
:102E8000000001402DE9F843044690F851009846AF
:102E9000012870D139B332B394F8500001286AD0B8
:102EA000012684F85060122084F8510000256565E1
:102EB0002163A286E286E564A564A563A587E5870C
:102EC000A06A7703B84209D12068016821F4005153
:102ED00001602068016841F400510160A068B0F50C
:102EE000004F03D007E00120BDE8F88320680168A7
:102EF00041F48041016020680168490603D40168FB
:102F000041F040010160E0680028606804D0D8B159
:102F1000E08E012818D021E010B1E08E012808D100
:102F2000206B411C216321680078C860E08E401E40
:102F3000E0860004000C1FD04346002202212046F8
:102F400001F043F9A8B9EBE7206B21680088C8605D
:102F5000206B801C2063E08E401EE0860004000C85
:102F60000AD0434600220221204601F02EF9002813
:102F7000EAD00320B8E726E0A06AB84204D120686E
:102F8000016841F48051016043460022022120463D
:102F900001F01BF930B9434601228021204601F09F
:102FA00014F920B1606D40F010006065E1E7A068A1
:102FB00018B92068C1688068009084F8516084F86E
:102FC0005050002090E702208EE74FF0E0210428C7
:102FD000086903D020F004000861704740F0040045
:102FE000FAE7704710B5401EB0F1807F01D3012091
:102FF00010BD4FF0E02460610F21601700F0CAFFA0
:103000000020A06107202061002010BD10B5FFF74F
:10301000E8FF10BD30B590F83820012A20D00122F9
:1030200080F83820022380F8393003685C6824F087
:1030300070045C6003685C680D682C435C60036826
:103040009C6824F080049C6003689C6849680C4379
:103050009C6080F83920002180F83810084630BD87
:10306000022030BD10B5040003D094F8390010B12F
:1030700007E0012010BD002084F83800204600F051
:103080000DF8022084F83900211D206801F00EFAA5
:10309000012084F83900002010BD000008B5006848
:1030A000B0F1804F08D10548C16941F00101C1610B
:1030B000C06900F00100009008BD0000001002404F
:1030C00070B5044690F83800012817D0012584F81F
:1030D0003850022084F839002068826822F0770294
:1030E00022F47F4282600868502837D00DDC202807
:1030F00059D005DC88B3102841D151E0022070BDC1
:10310000302853D040283AD13FE060282ED0702894
:103110000BD0B0F5805F03D0B0F5005F2FD110E089
:103120002068816821F0070115E0CB68D1E9012111
:10313000206801F000FA2168886840F07700886014
:103140001DE0CB68D1E90121206801F0F4F9206885
:10315000816841F48041816011E01EE0CA684968DD
:10316000206801F09DFA5021206806E0CA6849688D
:10317000206801F0A6FA6021206801F0E6F984F8E1
:103180003950002084F8380070BDCA68496820684A
:1031900001F086FA40212068EFE700212068ECE783
:1031A00010212068E9E720212068E6E73021206827
:1031B000E3E700001FB50068B0F1804F09D104209B
:1031C0000090022001900320039069460148FEF719
:1031D0006FFB1FBD0008014070B5044690F8380031
:1031E0000D4601280DD0012684F83860022084F8AD
:1031F000390042B1042A18D0082A2AD00C2A4DD10D
:1032000039E0022070BD206801F0A8F920688169CA
:1032100041F0080181612068816921F00401816128
:10322000206881692A69114311E0206801F0BEF924
:103230002068816941F4006181612068816921F41D
:1032400080618161206881692A6941EA0221816186
:1032500024E0206801F0D6F92068C16941F0080136
:10326000C1612068C16921F00401C1612068C169A0
:103270002A69114311E0206801F0F0F92068C16962
:1032800041F40061C1612068C16921F48061C161BC
:103290002068C1692A6941EA0221C16184F8396064
:1032A000002084F8380070BD10B5040003D094F8F5
:1032B000390010B107E0012010BD002084F838006B
:1032C000204600F00CF8022084F83900211D206807
:1032D00001F0ECF8012084F83900002010BD70479F
:1032E00010B504460068012201F01AF90749206868
:1032F000884203D1416C41F4004141642068016877
:1033000041F001010160002010BD0000002C0140CF
:103310007047000038B5044600680168C26811F0C3
:10332000010F02F4807204D01AB1E16B41F0010187
:10333000E1630168C1F34002416901F0010122B17A
:1033400019B1E26B42F00402E2630268C2F3800248
:1033500022B119B1E26B42F00202E2630268C2F3E9
:10336000C00222B119B1E16B41F00801E1630168CB
:10337000C068C1F3401100F0200019B110B120461F
:1033800001F0E0F920680168C068C1F3C01100F0E5
:10339000800019B110B1204601F0E0FA21680868F8
:1033A000CA68C0F3801002F04002012570B16AB112
:1033B000CA68204622F04002CA6094F839103229C7
:1033C00011D080F8395000BF00F091F9E06B00286F
:1033D00008D0206801684068009084F83950204681
:1033E000FFF796FF38BD222180F83910ECE770B561
:1033F000040004D094F83900002510B106E0012043
:1034000070BD84F83850204600F020F8022084F87F
:1034100039002068C16821F40051C160204601F0E4
:10342000E5F92068016921F4904101612068416952
:1034300021F02A0141612068C16841F40051C16056
:10344000E563012084F83900002070BD2DE9F043C8
:103450000646DFF8CCC00368002532484027022228
:103460000321314C85B04FF02008634539D1836981
:1034700043F4804383618069DFF8B09000F48040BA
:10348000CDE90310CDE9007269464846FEF710FA0F
:103490008027CDE90075694648460295FEF708FA8F
:1034A000606840F004006060224C2148C4E90005D7
:1034B000C4E902572561C4E905582046E561FEF7D5
:1034C0008BF908B1FDF72AFF746302220121252040
:1034D0006662FEF753FB2520FEF744FB05B0BDE80E
:1034E000F083154EB342F9D1C36943F40033C3618D
:1034F000C069124E00F40030CDE90310CDE900821E
:1035000069463046FEF7D4F9CDE900756946304684
:103510000295FEF7CDF9606840F008006060DDE7D5
:10352000003801400010024000000140000C014042
:1035300058000240C802002000440040001401402E
:1035400070B5044690F83900012801D0122832D114
:1035500069B362B394F8380001282CD0012084F8B4
:103560003800A162A2850025E56394F8390012288D
:103570001FD0222084F83900636B10489862636B77
:103580000F48D862636B0F48186308461346666B92
:10359000216802463046091DFEF746F92068416958
:1035A00041F04001416184F83850002070BD012095
:1035B00070BD3220DEE7022070BD00000547000824
:1035C0003B470008E7460008704770472DE9F04781
:1035D000044690F8390099460D46012801D022286A
:1035E00058D12DB322B394F83800012852D00126C7
:1035F00084F838600027E76394F8390022281AD04D
:103600005FF0120084F83900A284E2844FF48058FD
:10361000E08C4B46401EE084A0684FF0000240451D
:103620004FF08001204613D101F0CBF908BB04E034
:103630000120BDE8F0873220E4E728882168C0F344
:1036400008004860206908B16D1C08E0AD1C06E068
:1036500001F0B7F968B9216815F8010B4860E08CF2
:103660000028D5D14B4600224021204601F0A9F97F
:1036700008B10320DDE794F83900322806D084F839
:10368000396000BF84F838700020D2E7222084F827
:103690003900F7E70220CCE790F83930012B01D050
:1036A000222B22D1E9B1E2B190F83830012B1CD0A5
:1036B000012380F8383001628284C2840021C16312
:1036C00090F83920222A0ED05FF0120280F83920BB
:1036D00080F838100068C16841F08001C1600020A6
:1036E0007047012070473222F0E702207047704790
:1036F000FEE7000001B500224FF480710748FEF795
:10370000BAF9C823012269460548FFF7BBFB044804
:10371000FFF71DFB1228FAD008BD00000010014081
:10372000B401002070B50646002440F23F11204647
:1037300000F088F900F0CCFA4FF49635304600F0EE
:103740009BFA641CAC42F9D3BDE87040012211021F
:103750000148FEF790B900000010014001A100F0FF
:1037600019B8000020202020202020202020202008
:10377000202020202020202000000000203AD2B26B
:10378000034B02EB420203EB021200F01BB80000F5
:10379000486600082DE9F0410E460746002540F234
:1037A0003F1407E021463846FFF7E8FF103C6D1C48
:1037B000A4B2761C3278002A01D0142DF2D3BDE8D1
:1037C000F08100002DE9F74F91460446002601994B
:1037D00000F038F9DFF85480DFF854B001274FF4D7
:1037E000807A00BF00F074FA5FF0000539F8160027
:1037F00007FA05F10842404601D1408800E0008800
:1038000000F03AFA6D1C102DF0D3012251465846B3
:10381000FEF731F9641CE4B22046019900F012F978
:10382000761C182EDED3BDE8FE8F000000000020BD
:10383000001001402DE9F84F814603208846A0EB97
:1038400042070025144664E008EB040081B209EB4E
:10385000050B00900BF0FF0000F0F4F82F4E3088BD
:1038600000F026FAA8EB040A1FFA8AF10BF0FF0019
:1038700000F0E8F8308800F01BFA0098A9EB050B7F
:1038800081B20BF0FF0000F0DDF8308800F010FA94
:103890001FFA8AF10BF0FF0000F0D4F8308800F036
:1038A00007FA08EB050B09EB040A1FFA8BF10AF083
:1038B000FF0000F0C7F8308800F0FAF9A8EB050027
:1038C00081B200900AF0FF0000F0BCF8308800F0F0
:1038D000EFF9A9EB040A1FFA8BF10AF0FF0000F0E0
:1038E000B1F8308800F0E4F9009881B20AF0FF00E6
:1038F00000F0A8F8308800F0DBF9002F03DA07EBBE
:103900008507BF1D04E0281B07EB8007641E0A37EC
:103910006D1CA54298D9BDE8F88F0000000000207A
:103920002DE9F047984617460E460546002400F05C
:1039300089F8DFF8B490B8F1000F0ED0B8F1010F9C
:1039400027D0B8F1020F3146284626D000F07AF889
:10395000B9F8000000F0ACF943E000F0B9F94D46C9
:1039600003E0288800F088F9641CBC42F9D3BDE864
:10397000F047012211021D48FEF77DB8B9F800009A
:1039800000F096F96D1CEDB23146284600F05AF869
:10399000641CBC42F2D3BDE8F08700F053F8B9F8DC
:1039A000000000F085F90CE03146284600F04AF8A6
:1039B000B9F8000000F07CF96D1E761CEDB2B6B2CD
:1039C000641CBC42F0D3E6E73146284600F03AF8E2
:1039D000B9F8000000F06CF96D1E761EEDB2B6B2BB
:1039E000641CBC42F0D3D6E7000000200010014068
:1039F0002DE9F0411C4615460F4606460023224697
:103A0000FFF78EFF7019C0B2002322463946FFF738
:103A100087FF01232A4639463046FFF781FF381BCE
:103A2000401C81B22A463046BDE8F0410123FFF731
:103A300077BF000001B5BDF800000149488008BD0E
:103A40000000002010B50C460146202000F04AF985
:103A50002146BDE81040212000F044B901B5BDF871
:103A600000000149088008BD0000002010B50122B7
:103A700080218048FDF7FFFF3220FDF701FF4FF462
:103A80000041E52000F02EF90121002000F02AF984
:103A90004FF48071012000F025F94FF4E06102201D
:103AA00000F020F941F23001032000F01BF9002161
:103AB000042000F017F940F20221082000F012F96A
:103AC0000021092000F00EF900210A2000F00AF977
:103AD00000210C2000F006F900210D2000F002F971
:103AE00000210F2000F0FEF80021102000F0FAF86D
:103AF0000021112000F0F6F80021122000F0F2F869
:103B00000021132000F0EEF8C820FDF7B9FE41F2C5
:103B1000B071102000F0E6F840F23711112000F0EB
:103B2000E1F83220FDF7ACFE40F23911122000F02E
:103B3000D9F83220FDF7A4FE4FF4E851132000F02D
:103B4000D1F81321292000F0CDF83220FDF798FE9E
:103B50000021202000F0C6F80021212000F0C2F84A
:103B60000621302000F0BEF840F20111312000F0B3
:103B7000B9F80321322000F0B5F84FF483713520F5
:103B800000F0B0F840F60231362000F0ABF840F219
:103B90000231372000F0A6F840F20771382000F01B
:103BA000A1F80721392000F09DF84FF4C0613C20B6
:103BB00000F098F840F20B213D2000F093F800212E
:103BC000502000F08FF8EF21512000F08BF80021F9
:103BD000522000F087F840F23F11532000F082F8A5
:103BE0004FF42741602000F07DF80121612000F0B2
:103BF00079F800216A2000F075F80021802000F09B
:103C000071F80021812000F06DF80021822000F081
:103C100069F80021832000F065F80021842000F07D
:103C200061F80021852000F05DF81021902000F05F
:103C300059F80021922000F055F80321932000F05C
:103C400051F84FF48871952000F04CF8002197202E
:103C500000F048F80021982000F044F841F21801E3
:103C6000032000F03FF8BDE8104040F27311072038
:103C700000F038B80014014001B5C82301220B48F8
:103C80000DF10101FFF7FEF80848FFF760F8122870
:103C9000FAD0C823012269460448FFF7F3F8034825
:103CA000FFF755F81228FAD008BD0000B401002033
:103CB00010B5044600F00CF82046FFF7DDFF0122A6
:103CC000BDE8104011020148FDF7D5BE00100140CB
:103CD00010B5222000F02EF8BDE810407220FFF74A
:103CE00009BD000013B500F025F87220FFF702FDB2
:103CF000C82301220DF105010C48FFF7C3F80B485A
:103D0000FFF725F81228FAD0C823012201A9074895
:103D1000FFF7B8F80548FFF71AF81228FAD0012281
:103D200011020348FDF7A7FE1CBD0000B4010020EE
:103D30000010014001B57020FFF7DCFC0C490020A9
:103D400008600C48FFF703F81228FAD0C8230122B4
:103D500069460848FFF796F80648FEF7F8FF12286C
:103D6000FAD0012211020448FDF785FE08BD0000CB
:103D70000C3C0040B4010020001001402DE9F0414E
:103D8000464886B0816941F040018161816901F056
:103D900040010491816941F010018161816901F064
:103DA00010010491816941F004018161816901F090
:103DB00004010491816941F020018161816901F070
:103DC00020010491816941F0080181618069002529
:103DD00000F0080004901820CDE90005DFF8C0804D
:103DE000694640460295FDF763FDE0200124CDE9D8
:103DF00000040326694603964046FDF759FD60031B
:103E000000902848CDE90105274F69463846FDF75F
:103E10004FFD26486946CDE9004002952448FDF74C
:103E200047FD2020CDE90004022003906946384672
:103E3000FDF73EFD2002CDE90004694603963846B1
:103E4000FDF736FD8020CDE900041A4C6946039643
:103E50002046FDF72DFD0022E0214046FDF70BFE38
:103E600000224FF490713846FDF705FE00228021B4
:103E70002046FDF700FE002201210620FDF77EFE10
:103E80000620FDF76FFE012211462820FDF776FE81
:103E90002820FDF767FE06B0BDE8F0810010024063
:103EA0000018014000002110001001400000111016
:103EB00000080140001401400C480B494FF4007207
:103EC00001604FF48271416000218160C160016135
:103ED000C0E905123822C0E90721416281620A2146
:103EE000C162FEF737BF0000003001405C010020D6
:103EF0000C480B49022201604FF48271416000219D
:103F00008160C0E90312012242615202C0E9062128
:103F10000162416281620A21C162FEF71BBF00009B
:103F2000003C0040B401002010B518488EB04FF09E
:103F30008041016047210024C0E9011440F2E731CB
:103F4000C0E90314FFF78EF84FF48050079007A9DB
:103F50000E48FFF7B5F80D48FFF7A6F90B940BA92B
:103F60000A480C94FFF756F86020009040F2F310D6
:103F7000CDE901040822694604480494FFF72CF9AE
:103F80000248FFF717F90EB010BD00000C02002028
:103F9000FEE770470907090E002806DA00F00F0057
:103FA00000F1E02080F8141D704700F1E02080F857
:103FB000001470477047010901EB810100F00F0008
:103FC00000EB4100C0B27047002102E00A38C0B2E5
:103FD000491C0A28FAD2090740EA116070472DE906
:103FE000F04104460025C07B627BA37B42E0012AAE
:103FF00016D0032A14D0052A12D0072A10D0082A76
:104000000ED00A2A0CD00C2A0AD0042A10D0062A74
:104010000ED0092A0CD00B2A0AD0022A0DD028E093
:104020001F2B0CD30C2A05D101221346401C20E083
:104030001E2B04D30123521C1BE01C2B02D203F1C4
:10404000010316E011D183B29E0710D16426B3FBA1
:10405000F6F706FB173636B94FF4C876B3FBF6F71A
:1040600006FB17331BB91D2303E01D2B01D10322CF
:1040700001236D1C8D42BAD3D1B2E0736173DAB201
:10408000A27300F04FF82073BDE8F08170B50446CC
:10409000FDF7F6FC05464FF47A7606E0FDF7F0FCF6
:1040A000401BB04201D9032070BD206840688006E3
:1040B000F4D52068416841F010014160002070BDD6
:1040C00070B504460068416821F010014160FDF7B9
:1040D000D7FC05464FF47A7607E000BFFDF7D0FC29
:1040E000401BB04201D9032070BD206840688006A3
:1040F000F4D5002070BD0168086A496A89B241EAB6
:1041000000407047006881698AB2C1698BB28169D9
:1041100089B28A4203D0C06961F31F40704743EA05
:1041200002407047F0B56424C1EBC1030927A50024
:10413000072603EB01130329B3FBF7F100F5FA603F
:10414000114401440AD2401EB0FBF4F201EB90018D
:10415000B0FBF5F0891A0844001D08E0B0FBF4F24A
:1041600001EB9001B0FBF5F0891A0844801CB0FB0C
:10417000F6F106FB1100C0B2F0BD70B50D46064663
:104180000024FFF783FF48B93168280C08623168C2
:10419000A8B248623046FFF793FF00B101242046E1
:1041A00070BD70B50D4606460024FFF76FFF48B995
:1041B0003168280C88613168A8B2C8613046FFF7C1
:1041C0007FFF00B10124204670BD2DE9F0471D4658
:1041D00090460E460446FDF753FC07465FEA08008A
:1041E0004FF000084FF4005A4FF0010926D034E098
:1041F000681C23D025B1FDF743FCC01BA8421DD984
:104200002068416821F0E00141602068016821F0E8
:1042100040010160A06A504509D12068016821F47D
:10422000005101602068016841F40051016084F888
:10423000519084F850800320BDE8F08720688068A2
:1042400036EA0000D4D10DE0681C06D0002DD7D08E
:10425000FDF716FCC01BA842D2D82068806836EA59
:104260000000F1D00020E7E7704710B5FDF70EFC25
:10427000BDE81040FEF7CABE30B59BB009200090E3
:1042800001244FF4803004210794CDE90201022576
:10429000CDE90850019005944FF4E010CDE90A05EE
:1042A0004FF4C0600C9040200D906846FEF70CF86B
:1042B0000F20CDE90E050020A102CDE910011290DA
:1042C00002210EA8FDF794FE6002CDE9134013A869
:1042D000FDF78EFDFDF750FF4FF47A71B0FBF1F062
:1042E000FEF780FE0420FEF770FE200790FAA0F093
:1042F0000549B0FA80F041F8204000221146501ED6
:10430000FDF73CFC1BB030BD000042421048016884
:1043100041F00101016041680E4A114041600168AD
:104320000D4A11400160016821F48021016041685B
:1043300021F4FE014160016821F0A05101604FF4B9
:104340007F0181600021C1620449C0030860704799
:10435000001002400000FFF0FFFFF6FE08ED00E055
:1043600070B51C4D08212846FDF780FB70B1002078
:1043700000EB800040F3931040011D2190FBF1F011
:104380001138002800DC002080B270BD00224021DE
:104390002846FDF770FBD02000F05AF8002000F00E
:1043A00057F8902000F054F8002000F051F804462F
:1043B000002000F04DF80146600140EAD100C0F352
:1043C0000B04012240212846FDF755FBA4F6FF749B
:1043D0006042CDE70018014070B51C4D0821284609
:1043E000FDF744FB80B10024C4EB041040F313201C
:1043F000C0EB00100001D92190FBF1F00C3800282F
:1044000000DC002080B270BD002240212846FDF76C
:1044100032FBD02000F01CF8002000F019F8044610
:10442000902000F015F80646002000F011F800205A
:1044300000F00EF8610141EAD600C0F30B0401223E
:1044400040212846FDF717FBCEE700000018014089
:104450002DE9F0410024144F064625460122802113
:104460003846FDF708FB300601D5012200E00022A6
:1044700020213846FDF7FFFA002280213846FDF75B
:10448000FAFA7006060E6006040E10213846FDF793
:10449000EDFA012801D144F001046D1CEDB2082DA4
:1044A000DCD32046BDE8F08100180140F0B5026879
:1044B000174B184C184D194E4FF08047984207D0B3
:1044C000B84205D0A04203D0A84201D0B04204D1E6
:1044D00022F0700C4A6842EA0C02984207D0B842B7
:1044E00005D0A04203D0A84201D0B04203D122F4AB
:1044F0004074CA68224302608A68C2620A688262A3
:10450000984201D10969016301214161F0BD0000B8
:10451000002C01400004004000080040000C004056
:1045200010B50123046A8B409C430462036A8A40ED
:104530001343036210BD10B5846842EA032224F4D9
:104540007F440A432243826010BD826822F07002D9
:104550000A4342F0070181607047000030B5026AEB
:1045600022F001020262026A4368846924F0730542
:104570000C682C4322F002058A682A430A4DA8429F
:104580000BD122F00805CA6823F440732A434D6911
:1045900022F004021D438B692B4343608461496808
:1045A0004163026230BD0000002C014030B5026A58
:1045B00022F010020262026A436884690D6824F4E2
:1045C000E64444EA05248D6822F0200242EA0512FE
:1045D0000B4DA8420ED1CD6822F0800242EA0512AE
:1045E0004D6923F4406343EA85038D6922F040025C
:1045F00043EA85034360846149688163026230BD98
:10460000002C014030B5026A22F480720262036A13
:104610004268C46923F4007324F073050C682C43CA
:104620008D6843EA05230C4DA8420ED1CD6823F4D2
:10463000006343EA05234D6922F4405242EA051221
:104640008D6923F4806342EA05124260C4614968BF
:10465000C163036230BD0000002C014030B5026A26
:1046600022F480520262046A4268C3690D6823F42E
:10467000E64343EA05238D6824F4005444EA0534F4
:10468000064DA84204D14D6922F4804242EA8512C7
:104690004260C36149680164046230BD002C01407E
:1046A00010B5036A046A24F001040462846924F0EA
:1046B000F00444EA021423F00A020A43846102620D
:1046C00010BD10B5036A23F0100303628369046A06
:1046D00023F4704343EA023224F0A00343EA0111B9
:1046E0008261016210BD10B5406A0021C185C1849C
:1046F000012180F83910C16B41F01001C163FEF750
:1047000007FE10BD10B50146406A096809688906B0
:104710000ED40021C18501684A6922F040024A6135
:1047200090F83910322906D05FF0010180F8391075
:10473000FEF74AFF10BD1221F8E710B5406AFEF7F8
:1047400044FF10BD10B590F83910222903D032294A
:1047500001D0022010BD8168B1F5805F11D00169E0
:10476000002901681FD0496801F07F03816A4A1C53
:1047700082620B70C18D491E0904090CC18518D0D5
:1047800030E00269816A002A0268526805D0D2B21C
:104790000A80816A491C8162ECE7C2F308020A8040
:1047A000816A891CF7E74A68816A4B1C83620A7038
:1047B000E0E70168CA6822F02002CA6090F8391068
:1047C000322911D00168CA6822F48072CA60016877
:1047D0004A6922F001024A615FF0010180F8391054
:1047E000FEF7F2FE002010BD1221F7E72DE9F0419F
:1047F000044600680169E26821F4405111430161F7
:104800002169A0680843616908432168CA6841F2C8
:104810000C639A430243CA6020684169A26921F48B
:104820004071114341614C49206864253226884219
:104830003CD1FDF7BFFC00EBC00101EB001061684B
:104840008900B0FBF1F7FDF7B5FC00EBC00101EB0F
:1048500000106168B0468900B0FBF1F0B0FBF5F0E4
:104860006FF01801484307EB800106EB0110B0FB25
:10487000F5F000F0F006FDF79DFC00EBC00101EB48
:10488000001061688900B0FBF1F0B0FBF5F006EBB9
:104890000016FDF78FFC00EBC00101EB0010616812
:1048A0008900B0FBF1F7FDF785FC3BE0FDF76AFC02
:1048B00000EBC00101EB001061688900B0FBF1F76B
:1048C000FDF760FC00EBC00101EB00106168B04631
:1048D0008900B0FBF1F0B0FBF5F06FF01801484330
:1048E00007EB800106EB0110B0FBF5F000F0F006DD
:1048F000FDF748FC00EBC00101EB00106168890086
:10490000B0FBF1F0B0FBF5F006EB0016FDF73AFC5A
:1049100000EBC00101EB001061688900B0FBF1F70A
:10492000FDF730FC00EBC00101EB0010616889006D
:10493000B0FBF1F0B0FBF5F06FF01801484307EB66
:10494000800108EB0110B0FBF5F0216800F00F00CA
:1049500030448860BDE8F0810038014090F839109B
:10496000122903D0322901D0022070478168B1F5A5
:10497000805F016A0BD04A1C0262026809785160AC
:10498000C18C491E0904090CC1840ED017E00988A6
:104990000268C1F30801516001690029016A02D06F
:1049A000491C0162ECE7891CFBE70168CA6822F038
:1049B0008002CA600068C16841F04001C160002007
:1049C00070472DE9F0471D4690460E460446FDF718
:1049D00057F807465FEA08004FF000094FF001085A
:1049E00008D030E0681C05D095B1FDF749F8C01B30
:1049F000A8420DD82068006836EA0000F2D127E00E
:104A0000681C20D025B1FDF73BF8C01BA8421AD97D
:104A10002068C16821F08001C1602068C16821F070
:104A20002001C1602068C16821F48071C1602068E4
:104A3000416921F00101416184F8398084F838909E
:104A40000320BDE8F0872068006836EA0000D7D070
:104A50000020F6E70148FEF75DBC00004802002098
:104A6000FEE700000FB4084B10B504A902AA039892
:104A700000F01CF8044602A9002000F0B8F9204616
:104A800010BC5DF814FB0000EF4D000802E008C800
:104A9000121F08C1002AFAD170477047002001E0B8
:104AA00001C1121F002AFBD1704700002DE9FF4F02
:104AB0008BB088460546002606E025280BD0DDE9A8
:104AC0000D1290476D1C761C28780028F5D10FB088
:104AD0003046BDE8F08F0024A146A2460122AE492F
:104AE00000E0044315F8013F203B02FA03F00842BE
:104AF000F7D128782A2810D06FF02F022878A0F15B
:104B00003001092915D809EB890102EB410144F074
:104B1000020400EB01096D1CF0E758F8041B5FEA82
:104B2000010903D544F40054C9F1000944F002041A
:104B30006D1C28782E2817D115F8010F44F00404B5
:104B40002A280ED06FF02F022878A0F13001092911
:104B50000AD80AEB8A0102EB410100EB010A6D1C45
:104B6000F2E758F804AB6D1C28786C280FD006DCEF
:104B70004C2817D068280DD06A2814D104E0742876
:104B800010D07A280FD10DE044F400140AE044F468
:104B9000801401E044F440146978814202D104F5A4
:104BA00080146D1C6D1C2878692865D006DC0028EF
:104BB0008DD0632827D0642806D15DE06E2808D008
:104BC00073282AD0752877D0DDE90D129047761C1E
:104BD000E0E0C4F30250022809D003280DD0D8F831
:104BE000001004280DD00E6008F10408D2E0D8F8B7
:104BF0000010F217C1E90062F6E7D8F800100E8045
:104C0000F2E70E70F0E718F8041B8DF80010002092
:104C10008DF80100EB46012003E058F804BB4FF08B
:104C2000FF3061074FF0000701D40AE07F1C5745B1
:104C30000DDA8742FADB1BF807100029F6D106E0EF
:104C40007F1C8742FCDB1BF807100029F8D1DDE947
:104C50000D23A9EB07008146214600F0B1F830444E
:104C6000C61904E0DDE90D121BF8010B90477F1E09
:104C7000F8D22146484688E058F8040BC4F30251A4
:104C80004FF00A0B032900D100B2042900D140B231
:104C9000002802DA40422D2102E0210505D52B2112
:104CA0008DF82410012104E006E0E10710D0202156
:104CB000F6E708AF089113E058F8040BC4F302516B
:104CC0004FF00A0B032900D180B2042900D1C0B2F1
:104CD0000021EEE75946FBF72EFD303107F8011DA4
:104CE0000028F7D1ADEB070000F1200B600702D5DB
:104CF00024F4803401E04FF0010ADA4502DDAAEB2A
:104D00000B0000E00020824600EB0B0108980144F4
:104D1000A9EB01000A90E00306D4DDE90D2321464A
:104D20000A9800F04DF806444FF0000908E009A980
:104D300011F80900DDE90D12904709F10109761C0F
:104D400008998945F3DBE0030CD5DDE90D23214605
:104D50000A9800F035F8064404E0DDE90D12302031
:104D60009047761CBAF10001AAF1010AF5DC05E0D2
:104D7000DDE90D1217F8010B9047761CBBF100011D
:104D8000ABF1010BF4DC0A982146DDE90D2300F0BC
:104D900005F806446D1C97E6092801002DE9F0414D
:104DA000044600251E461746880404D405E039460B
:104DB0002020B0476D1C641EF9D52846BDE8F0815F
:104DC0002DE9F041044600251E469046C80301D552
:104DD000302700E02027880404D505E04146384606
:104DE000B0476D1C641EF9D52846BDE8F0810A68FD
:104DF000531C0B60107070472DE9FC5F3749087831
:104E000000B91820354E6FF03C02F61EC0EB0010C2
:104E1000357849786A4302EB8000401800D540425B
:104E200000244FF0180BFBF713FCCDE90001DFF86D
:104E3000AC9096F801804FF03C0A09F1250900BFBB
:104E4000DDE900710E462046FBF702FC6FF002021E
:104E5000FBF7E7FB3A463346FBF771FB00F054FDE6
:104E6000FBF71BFC0246564690FBF6F0411991FBFE
:104E7000FBF392FBF6F20BFB1310C1B204EB4403FD
:104E80004244484609F803103C2A01DB491CC1543E
:104E900092FBF6F10AFB11211A18641C5170082CC0
:104EA000CEDB0E49C91C8A1F0C784B78D16901EB07
:104EB00041050544EE78B4420AD900BF01F1010171
:104EC000D1610829F2D14FF0FF30D061BDE8FC9FDD
:104ED000FCD12D79AB42F1D8F8E7000007000020A3
:104EE00010B54FF6FF742046FEF71CFC1F20FEF79E
:104EF000A1FD2046FEF7B2FD28A10020FEF74AFCE6
:104F00002046FEF797FD0020FEF7A8FD0022294964
:104F10002948FDF769FD274900221E312648FDF783
:104F20003CFD244825A1437802782B48FFF79AFDE1
:104F300029491820FEF72EFC28A13020FEF72AFC74
:104F40004FF6E070FEF78AFD50231E2240F23B111F
:104F50001220FEF74DFD50231E225A211220FEF78B
:104F600047FD6E231E22DC212A20FEF741FD002092
:104F700000F0B6FE012000F0B3FE022000F0B0FE0B
:104F8000032000F0ADFE042000F0AAFE052000F092
:104F9000A7FEBDE81040062000F0A2BE2020202081
:104FA00020547265654D696E646572202020202052
:104FB000000000000A0000204801002020594F5541
:104FC000202020253032643A2530326420202054BD
:104FD000494D45200000000015030020202020201E
:104FE000202020434845434B202020202020200023
:104FF0002DE9F0412B4D0646042046F24D74286100
:105000002046FEF78FFB4FF6FF70FEF727FD204688
:10501000FEF710FD721C24A12748FFF723FD264947
:105020000020FEF7B7FB002405F1400000EB461618
:105030005FF0180756F82400621C00EB8000430064
:105040001EA11D48FFF70EFD04EB440007EBC00056
:10505000C0B21949FEF79EFB641C082CEADB4FF630
:10506000E070FEF7FBFC19A1D820FEF793FB5A2352
:105070001922CD21D720FEF7BBFC00260BE000BF94
:10508000FFF76EF90446FFF7A7F90CB100B12E61E6
:105090006420FCF7F5FB28690028F1D1BDE8F04158
:1050A000FFF71EBF040000202D2D2D204461792024
:1050B0002564202D2D2D000015030020476C617301
:1050C000732025643A202564252500002020202017
:1050D00020202020444F4E4520202020202020202A
:1050E000000000002DE9F05F304D032046F24D74C2
:1050F00028612046FEF716FB4FF6FF7B5846FEF769
:10510000ADFC2046FEF796FC29A12F48FFF7AAFC2C
:105110002D490020FEF73EFBDFF8AC80002405F1AE
:1051200028074FF6E07A4FF0180900BF04EB440659
:10513000F019BA5D437825A12348FFF793FC04F1E9
:10514000300088F80000E869401C844201D15046D4
:1051500000E05846FEF782FC09EBC600C0B21A49CF
:10516000FEF718FB641C082CE0DB5046FEF776FCCB
:105170001DA1D820FEF70EFB5A231922CD21D720DE
:10518000FEF736FC00260AE0FFF7EAF80446FFF7D0
:1051900023F90CB100B12E616420FCF771FB286982
:1051A0000028F1D1BDE8F05FFFF79ABE04000020AF
:1051B000576174657220706F757265642061743A0E
:1051C000202020200000000015030020203A205B52
:1051D000253032643A253032645D202020202020A2
:1051E000202020200000000020202020202020203F
:1051F000444F4E4520202020202020200000000089
:1052000070B5354C022046F24D7520612846FEF7F8
:1052100089FA46F66220FEF721FC2846FEF70AFCD2
:1052200004F590722DA12F48FFF71CFC2D4900209A
:10523000FEF7B0FAD4E905322BA12A48FFF712FC99
:1052400028491820FEF7A6FA20462CA143780278B8
:105250002448FFF707FC23493020FEF79BFAE01CA7
:105260002CA1437802781F48FFF7FCFB1D4948201A
:10527000FEF790FAE06900EB400104F128000844D1
:105280002BA10379C2781748FFF7ECFB1549602082
:10529000FEF780FA4FF6E070FEF7E0FB2AA1D82077
:1052A000FEF778FA5A231922CD21D720FEF7A0FB6A
:1052B00000260AE0FFF754F80546FFF78DF80DB118
:1052C00000B126616420FCF7DBFA20690028F1D1E7
:1052D000BDE87040FFF704BE040000204E414D457C
:1052E0003A257300150300204147453A25303264C2
:1052F000204B473A253032640000000057616B654F
:105300002054696D653A20205B253032643A25309F
:1053100032645D00536C6565702054696D653A2098
:10532000205B253032643A253032645D0000000095
:105330004E6578742054696D653A205B253032647F
:105340003A253032645D00002020202020202020DB
:10535000444F4E4520202020202020200000000027
:105360002DE9F0471B48C168002930D00021C160F9
:105370001F20FEF75FFB4FF6FF742046FEF76EFB23
:1053800015A10020FEF706FA2046FEF753FB184E43
:10539000DFF86080DFF86090184D4FF07E544FF4D6
:1053A00000072046FBF798F932464346FBF7C1F861
:1053B000FBF7A5F904464946FAF7E8FFFBF759F968
:1053C0002968C8636420FCF75BFABC42E9DABDE8EF
:1053D000F087000004000020202020202054726567
:1053E000654D696E64657220202020200000000059
:1053F0009A9999999999A93F00C079440C02002083
:105400000206B2EB016F0FD1C0F30722C1F30723ED
:105410009A4209D1C0F307408008C1F30741B0EBBD
:10542000910F01D101207047002070471CB5FCF797
:1054300035FBFEF721FFFEF7A1FCE548416941F08D
:10544000010141614069012200F001000090114614
:105450000F20FCF793FB0F20FCF784FBFEF748FDC1
:10546000DD48DC494FF0000901604FF4E131C0E94B
:1054700001190C26C0F80C90C0E90496C0F81890E9
:105480004C46C0F81C90FDF7B2FFD34DD348403DC9
:1054900028604FF41650C5E90104EC60C5E90446E4
:1054A000AC612846EC61FDF7A2FFFEF73DFDCC495B
:1054B000A5F580708F154FF0FF3A8760C0E9001A9C
:1054C000FDF7FEFA01268DF804608DF805408DF891
:1054D0000640002201A9A5F58070FDF7C5FB8DF8F7
:1054E00000608DF801608DF802608DF803400022A5
:1054F0006946A5F58070FDF755FBFEF7DDFC2868D1
:10550000C16841F04001C1602868C16841F02001D4
:10551000C1600821A5F13C00FDF7E2FE3846FCF72A
:105520006BFB05F18000FCF757F9FEF79FFA4FF48B
:10553000A07BFFF715FF00F0FFFBFFF7D3FDA94E9F
:105540000025B41F04F12808FEF70AFF0746FEF7FE
:1055500043FFA0F1180118294DD8F02F04DB5F4557
:1055600002DCFFF74DFEB2E0002F04DB502F02DC1F
:10557000FFF7B8FDABE06D1C05EBD57020F0010026
:105580002D1A0020FEF76AFA4FF000029DB19549EE
:1055900095481E31FDF701FA924B1E33187801F041
:1055A0002BF80246587800908B489B788FA18D305D
:1055B000FFF758FA0AE08B498B48FDF715FA864841
:1055C000737832788FA18D30FFF74CFA824918201A
:1055D0008D31FEF7DFF84FF6E070FEF73FFA50230B
:1055E0001E2240F23B111220FEF702FA50231E2227
:1055F0005A21122038E0A0F13101422937D2642F1C
:1056000035DBDC2F33DCE269501C00D10722724805
:1056100083A18D305632FFF725FA6F4901228D3173
:10562000A1F1CD00FEF738F84FF47840FEF716FAF6
:105630007CA13020FEF7AEF86E231E22DC212A204A
:10564000FEF7D6F96420FCF71BF90020FEF706FAF6
:1056500079A13020FEF79EF84FF6E070FEF7FEF9D4
:105660006E231E22DC212A20FEF7C2F92FE07338B8
:105670007D282CD84FF48A70874203DB5F4501DA1E
:10568000002022E0DD2F03DB874201DA01201CE04D
:10569000B02F03DBDC2F01DC022016E0832F03DBBD
:1056A000AF2F01DC032010E0562F03DB822F01DC3B
:1056B00004200AE0292F03DB552F01DC052004E03C
:1056C000012F04DB282F02DC0620FFF791FC0022CB
:1056D00044494548FDF788F9424900221E314248B5
:1056E000FDF75BF9B078F8B90020FEF7B7F93A4852
:1056F0007378327843A18D30FFF7B4F9364918201A
:105700008D31FEF747F84FF6E070FEF7A7F950230A
:105710001E2240F23B111220FEF76AF950231E228E
:105720005A211220FEF764F9E069474600EB400079
:105730003844B0F80310ADF8001040798DF802003D
:10574000D4F806000099FFF75BFEC8B3E069401C7F
:10575000E06107281ADBC4F81CA0206A401C206204
:10576000072801DBC4F82090DFF878C000214A4602
:105770000CF13A0C00200CEB411300BF43F8202041
:10578000401C0828FADB491C0729F3DB12480122D8
:105790002EA14038FDF780FF4FF47A70FCF770F8C7
:1057A000E0692BA100EB400038440379C2780A4835
:1057B0008D30FFF757F9084948208D31FDF7EAFF92
:1057C000054914227831A1F1B800FDF7B9FEBBE616
:1057D00000100240004400408802002000380140D0
:1057E000002800400A0000204801002020594F55A1
:1057F00020257320253032642F253032642054490F
:105800004D45200020594F55202020253032643A44
:105810002530326420202054494D452000000000EE
:105820002563000020202020202020574149542EAD
:105830002020202020202000202020202020204365
:105840004845434B2020202020202000430000001A
:105850004E6578742054696D653A205B253032645A
:105860003A253032645D00002DE9F0471B48C168DD
:10587000002930D10121C1604FF4FC60FEF7DAF855
:105880004FF6FF742046FEF7E9F815A10020FDF75A
:1058900081FF2046FEF7CEF8174EDFF86080DFF874
:1058A0006090184D00244FF07E572046FAF714FF01
:1058B00032464346FAF79CFDFAF721FF0446494673
:1058C000FAF764FDFAF7D5FE2968C8636420FBF790
:1058D000D7FFBC42E9DBBDE8F087000004000020F0
:1058E00020202020202020204F50454E2020202006
:1058F00020202020000000009A9999999999A93FA9
:1059000000C079440C0200202DE9F04D07460E46F8
:10591000FBF71EF804460D463A463346FAF70CFEEE
:10592000DFF86CA0DFF86CB01B4B0746884616F01A
:10593000004F4FF000020AD0FBF74EF80AD90022C0
:105940005B4638464146FBF75FF81BD212E0FBF797
:1059500043F808D20022534620462946FAF7E9FDCB
:1059600004460D460EE000225B4638464146FBF7F2
:105970004BF807D80022534620462946FAF738FD4F
:1059800004460D463146204665F31E01BDE8F08D04
:105990000000F03F0000E03F0000E0BF2DE9FF5FA6
:1059A0000546DDE910A790460E4640F2271446F65C
:1059B0006220DDF83CB0FEF751F86FF00A00684352
:1059C00004EB8004A1B20A22EF20FDF733FFA1B25D
:1059D0000922EF20FDF72EFFA1B20822EF20FDF7EC
:1059E00029FF03990E9841440144594401EB0A00F0
:1059F000F8424FF2DE7909D046B94846FEF72EF854
:105A0000A1B201232322C320FDF78AFF0BEB0A007A
:105A1000F8420AD00E9840B94846FEF71FF8A1B2E6
:105A2000012328229B20FDF77BFF129848B147B93C
:105A30004846FEF713F8A1B201232D227820FDF786
:105A40006FFF012E02D0022E03D00CE046F662203A
:105A500001E04FF6E070FEF701F8A1B20123232226
:105A6000C320FDF75DFF6FF00A0205FB02F04FF463
:105A7000947202EB80094FF49B7202EB8006B8F13E
:105A8000010F03D0B8F1020F1CD02FE046F66220C0
:105A9000FDF7E4FF1FFA89F102230A22D720FDF760
:105AA0003FFF46F24D70FDF7D9FFB1B20822C82082
:105AB000FDF7C0FEB1B20722C820FDF7BBFEB1B2B0
:105AC000062210E046F66220FDF7C8FF1FFA89F1B2
:105AD00002230A22D720FDF723FF46F24D70FDF77F
